:020000020000FC
:0200000019C025
:100034000FEF0DBF08E00EBF22E30EEF04B908E294
:100044000E947F000E949D000FE00E947F000E949A
:100054009D0006E00E947F000E949D0001E00E9436
:100064007F000E949D000E949D000E949D000E94AE
:100074009D000E949D0008E40E948D000E949D0046
:1000840005E60E948D000E949D000CE60E948D00F2
:100094000E949D000CE60E948D000E949D000FE6C8
:1000A4000E948D000E949D000CE20E948D000E941F
:1000B4009D0000E20E948D000E949D0007E70E94BF
:1000C4008D000E949D000FE60E948D000E949D00FD
:1000D40002E70E948D000E949D000CE60E948D00A4
:1000E4000E949D0004E60E948D000E949D0001E292
:1000F4000E948D000E949D00FFCF1F93102F107F40
:1001040015B92B9A2B98102F1295107F15B92B9A8D
:100114002B981F9108951F93102F107F15B9299ABA
:100124002B9A2B98102F1295107F15B9299A2B9A78
:100134002B981F9108958F939F938827922F0000E7
:100144000000000000000197D1F79F918F9108955E
:00000001FF
